:020000040800F2
:10000000FFFF0120AD5300083F0200082302000853
:1000100001540008015400080154000800000000C9
:10002000000000000000000000000000270200089F
:1000300043020008000000009D020008330200088F
:10004000015400080154000801540008015400083C
:10005000015400080154000801540008015400082C
:100060000154000801540008155A00080154000802
:10007000015400080154000801540008015400080C
:1000800001540008015400080154000801540008FC
:1000900001540008015400080154000801540008EC
:1000A00001540008015400080154000801540008DC
:1000B00001540008015400080154000801540008CC
:1000C00001540008015400080154000801540008BC
:1000D00001540008015400080154000801540008AC
:1000E000235A000801540008015400080154000874
:1000F000015400080154000801540008015400088C
:1001000000000000015400080154000801540008D8
:1001100000000000000000007514000801540008F1
:10012000015400080154000801540008015400085B
:10013000015400080154000801540008015400084B
:10014000015400080154000801540008015400083B
:10015000015400080154000801540008015400082B
:1001600001540008015400080000000000000000D5
:10017000000000000000000000000000000000007F
:1001800001540008015400080000000000000000B5
:1001900001540008015400080000000000000000A5
:1001A000000000000000000000000000000000004F
:1001B0000154000800000000000000000154000885
:0401C00001540008DE
:1001D00072B61D481D4901F1040101604FF0E02095
:1001E0001B49C0F8081D1B481949096801601A48D5
:1001F000016841F0010101604FF0E02017494161C1
:100200004FF0070101614FF00001C0F8181D4FF0D9
:100210007F41C0F81C1D1249C0F8201D7047FFF730
:10022000FEBFFFF7FEBFFFF7FEBF00B55DF804EBB2
:10023000704700B500F07CF85DF804EB7047FFF7FD
:10024000FEBFFFF7FEBF0000D4050020900A00208B
:1002500000000008D8050020001000E0FFA50E00F7
:100260000000FF400000000000000000000000004F
:100270004FF000002A4A1060EFF3148020F00400D1
:1002800080F3148862B64FF080504FF0E021C1F83F
:10029000040DBFF34F8FBFF36F8FFEE72148224A53
:1002A0004FF00003016891B10360EFF3098C2CE972
:1002B000F00F1EF0100F01D12CED108A1B4C4CF8E2
:1002C00004ED2568C1F808C00DB18D61236072B6D8
:1002D0001168B1B1016062B64F68144C8D6907F1C5
:1002E00001074F602560D1F808C05CF804EB1EF0F0
:1002F000100F01D1BCEC108ABCE8F00F8CF3098818
:10030000704772B61168016009B962B6F9E74FF03B
:1003100000674FF0E028C8F8047D62B6DCE770475C
:1003200070060020DC050020E005002040070020CA
:100330002249086800F101000860214B1A683AB1AF
:10034000A2F101021A601AB91E4B4FF001001860A9
:100350001D490868026822B11C4B4FF001021A6067
:1003600008E000F104001A4B1A68904201D1194BC1
:1003700018680860134B1A6812B914490868C8B1A4
:1003800001B51249086808B105F0AEFE0D4B1A68B8
:1003900072B105F059FE1048016849B90F4801686B
:1003A0000F4A13680F484FF08052994200D0026004
:1003B000BDE80140BFF34F8F704700007406002076
:1003C00040070020780600208406002088060020D0
:1003D000800600207C06002070060020DC0500203E
:1003E000E005002004ED00E053B94AB9002908BF38
:1003F00000281CBF4FF0FF314FF0FF3000F00CB869
:10040000ADF1080C6DE904CE06F03AF8DDF804E031
:10041000DDE9022304B07047704700BF0000000010
:1004200001F0FF01102A2BDB10F0070F08D010F8A5
:10043000013B013A8B422DD010F0070F42B3F6D1A9
:10044000F0B441EA012141EA014122F007047FF0C2
:1004500000070023F0E80256083C85EA010586EA19
:10046000010685FA47F5A3FA87F586FA47F6A5FA55
:1004700087F68EB9EED1F0BC01F0FF0102F0070261
:1004800032B110F8013B013A83EA010313B1F8D10C
:100490000020704701387047002D06BF35460338ED
:1004A000073815F0010F07D1013015F4807F02BF26
:1004B000013015F4C03F0130F0BC0138704700BF77
:1004C0000348044B834202D0034B03B118477047E3
:1004D000A8000020A8000020000000000548064BEE
:1004E0001B1AD90F01EBA301491002D0034B03B132
:1004F00018477047A8000020A80000200000000056
:1005000010B5064C237843B9FFF7DAFF044B13B15B
:100510000448AFF300800123237010BDA800002021
:1005200000000000C879000808B5054B1BB105495B
:100530000548AFF30080BDE80840FFF7CFBF00BF1C
:1005400000000000AC000020C879000880B500AFB2
:100550000E4B1B680D4A43F4007313600B4B1B6872
:100560000A4A43F480631360084B1B68074A43F44C
:1005700080731360032002F0BEFF0F2000F00AFF1B
:1005800004F03FFF0023184680BD00BF003C02403E
:1005900080B400AF054B1B781A46054B1B6813440B
:1005A000034A136000BFBD4680BC704704000020B2
:1005B000C400002080B400AF024B1B681846BD4643
:1005C00080BC7047C400002080B584B000AF786064
:1005D000FFF7F0FFB8607B68FB60FB68B3F1FF3F9B
:1005E00005D00A4B1B781A46FB681344FB6000BF1A
:1005F000FFF7E0FF0246BB68D31AFA689A42F7D8C1
:1006000000BF00BF1037BD4680BD00BF0400002002
:1006100080B489B000AF7860396000237B6100232B
:100620003B610023BB610023FB6153E10122FB69B5
:1006300002FA03F37B613B681B687A6913403B61F4
:100640003A697B699A4240F042813B685B68012BC2
:100650000BD03B685B68022B07D03B685B68112BB3
:1006600003D03B685B68122B30D17B689B68BB6111
:10067000FB695B00032202FA03F3DB43BA69134010
:10068000BB613B68DA68FB695B0002FA03F3BA6995
:100690001343BB617B68BA699A607B685B68BB6126
:1006A0000122FB6902FA03F3DB43BA691340BB6121
:1006B0003B685B681B0903F00102FB6902FA03F364
:1006C000BA691343BB617B68BA695A607B68DB68AF
:1006D000BB61FB695B00032202FA03F3DB43BA69E7
:1006E0001340BB613B689A68FB695B0002FA03F345
:1006F000BA691343BB617B68BA69DA603B685B68BF
:10070000022B03D03B685B68122B23D1FB69DA080C
:100710007B68083253F82230BB61FB6903F00703A2
:100720009B000F2202FA03F3DB43BA691340BB615B
:100730003B681A69FB6903F007039B0002FA03F3A5
:10074000BA691343BB61FB69DA087B680832B9698F
:1007500043F822107B681B68BB61FB695B000322C6
:1007600002FA03F3DB43BA691340BB613B685B6881
:1007700003F00302FB695B0002FA03F3BA69134357
:10078000BB617B68BA691A603B685B6803F08053A1
:10079000002B00F09C800023FB60534B5B6C524AA3
:1007A00043F480435364504B5B6C03F48043FB6021
:1007B000FB684E4AFB699B08023352F82330BB6149
:1007C000FB6903F003039B000F2202FA03F3DB43F0
:1007D000BA691340BB617B68454A934213D07B687A
:1007E000444A93420DD07B68434A934207D07B68CA
:1007F000424A934201D1032306E0072304E0022387
:1008000002E0012300E00023FA6902F003029200F3
:100810009340BA691343BB613449FB699B080233B7
:10082000BA6941F82320364B1B68BB613B69DB4347
:10083000BA691340BB613B685B6803F48033002BEB
:1008400003D0BA693B691343BB612D4ABB6913608E
:100850002B4B5B68BB613B69DB43BA691340BB61EF
:100860003B685B6803F40033002B03D0BA693B6933
:100870001343BB61224ABB695360214B9B68BB6138
:100880003B69DB43BA691340BB613B685B6803F4B7
:100890008013002B03D0BA693B691343BB61184A2C
:1008A000BB699360164BDB68BB613B69DB43BA698C
:1008B0001340BB613B685B6803F40013002B03D05B
:1008C000BA693B691343BB610D4ABB69D360FB69DD
:1008D0000133FB61FB690F2B7FF6A8AE00BF00BFA1
:1008E0002437BD4680BC70470038024000380140C4
:1008F000000002400004024000080240000C0240D8
:10090000003C014080B582B000AF0346FB80084B3D
:100910005A69FB881340002B06D0054AFB885361B7
:10092000FB88184605F085F800BF0837BD4680BD36
:10093000003C014080B582B000AF78607B68002B3E
:1009400001D101231DE07B6893F83D30DBB2002B21
:1009500006D17B68002283F83C20786800F015F807
:100960007B68022283F83D207B681A687B68043329
:100970001946104600F08EFA7B68012283F83D206C
:10098000002318460837BD4680BD80B483B000AF51
:10099000786000BF0C37BD4680BC704780B485B01E
:1009A00000AF78607B681B68DA687B681B6842F080
:1009B0000102DA607B681B689B6803F00703FB6039
:1009C000FB68062B07D07B681B681A687B681B686E
:1009D00042F001021A60002318461437BD4680BC5D
:1009E000704780B582B000AF78607B68002B01D182
:1009F00001231DE07B6893F83D30DBB2002B06D16C
:100A00007B68002283F83C20786800F015F87B684A
:100A1000022283F83D207B681A687B6804331946FC
:100A2000104600F037FA7B68012283F83D2000234E
:100A300018460837BD4680BD80B483B000AF7860EB
:100A400000BF0C37BD4680BC7047000080B584B045
:100A500000AF786039607B681B68012239681846EE
:100A600000F062FC7B681B68154A934204D07B68E7
:100A70001B68144A934201D1012300E00023002B9C
:100A800007D07B681B685A6C7B681B6842F4004285
:100A90005A647B681B689B6803F00703FB60FB6874
:100AA000062B07D07B681B681A687B681B6842F0BE
:100AB00001021A60002318461037BD4680BD00BFF2
:100AC000000001400004014080B582B000AF7860B2
:100AD0007B681B681B6903F00203022B22D17B6831
:100AE0001B68DB6803F00203022B1BD17B681B68C9
:100AF0006FF002021A617B6801221A777B681B681B
:100B00009B6903F00303002B03D0786800F0A7F97A
:100B100005E0786800F09AF9786800F0A9F97B6838
:100B200000221A777B681B681B6903F00403042BFF
:100B300022D17B681B68DB6803F00403042B1BD104
:100B40007B681B686FF004021A617B6802221A77C7
:100B50007B681B689B6903F44073002B03D07868A3
:100B600000F07DF905E0786800F070F9786800F031
:100B70007FF97B6800221A777B681B681B6903F08A
:100B80000803082B22D17B681B68DB6803F008038D
:100B9000082B1BD17B681B686FF008021A617B6809
:100BA00004221A777B681B68DB6903F00303002BC0
:100BB00003D0786800F053F905E0786800F046F952
:100BC000786800F055F97B6800221A777B681B680B
:100BD0001B6903F01003102B22D17B681B68DB68B4
:100BE00003F01003102B1BD17B681B686FF0100201
:100BF0001A617B6808221A777B681B68DB6903F43B
:100C00004073002B03D0786800F029F905E078687C
:100C100000F01CF9786800F02BF97B6800221A7745
:100C20007B681B681B6903F00103012B0ED17B68F5
:100C30001B68DB6803F00103012B07D17B681B688D
:100C40006FF001021A61786800F00AFC7B681B688B
:100C50001B6903F08003802B0ED17B681B68DB6867
:100C600003F08003802B07D17B681B686FF0800244
:100C70001A61786800F085FB7B681B681B6903F0CC
:100C80004003402B0ED17B681B68DB6803F04003F8
:100C9000402B07D17B681B686FF040021A617868AF
:100CA00000F0EFF87B681B681B6903F02003202B22
:100CB0000ED17B681B68DB6803F02003202B07D173
:100CC0007B681B686FF020021A61786800F050FBA7
:100CD00000BF0837BD4680BD80B584B000AFF86066
:100CE000B9607A60FB6893F83C30012B01D1022394
:100CF000A8E0FB68012283F83C20FB68022283F80D
:100D00003D207B680C2B72D07B680C2B00F290800E
:100D10007B68082B4BD07B68082B00F289807B68AE
:100D2000002B03D07B68042B20D081E0FB681B687C
:100D3000B968184600F04CF9FB681B689A69FB68B3
:100D40001B6842F008029A61FB681B689A69FB689D
:100D50001B6822F004029A61FB681B689969BB68F2
:100D60001A69FB681B680A439A6162E0FB681B68AA
:100D7000B968184600F09CF9FB681B689A69FB6823
:100D80001B6842F400629A61FB681B689A69FB6801
:100D90001B6822F480629A61FB681B689969BB68D2
:100DA0001B691A02FB681B680A439A6141E0FB68F1
:100DB0001B68B968184600F0EFF9FB681B68DA6930
:100DC000FB681B6842F00802DA61FB681B68DA699D
:100DD000FB681B6822F00402DA61FB681B68D969B2
:100DE000BB681A69FB681B680A43DA6121E0FB688B
:100DF0001B68B968184600F043FAFB681B68DA699B
:100E0000FB681B6842F40062DA61FB681B68DA6900
:100E1000FB681B6822F48062DA61FB681B68D96991
:100E2000BB681B691A02FB681B680A43DA6100E0B1
:100E300000BFFB68012283F83D20FB68002283F895
:100E40003C20002318461037BD4680BD80B483B0D7
:100E500000AF786000BF0C37BD4680BC704780B4DF
:100E600083B000AF786000BF0C37BD4680BC7047D0
:100E700080B483B000AF786000BF0C37BD4680BC43
:100E8000704780B483B000AF786000BF0C37BD46B8
:100E900080BC704780B485B000AF786039607B68F3
:100EA0001B68FB607B683F4A934213D07B68B3F1B9
:100EB000804F0FD07B683C4A93420BD07B683B4A03
:100EC000934207D07B683A4A934203D07B68394A01
:100ED000934208D1FB6823F07003FB603B685B68BA
:100EE000FA681343FB607B682E4A93422BD07B68E1
:100EF000B3F1804F27D07B682B4A934223D07B6885
:100F00002A4A93421FD07B68294A93421BD07B68B0
:100F1000284A934217D07B68274A934213D07B68B4
:100F2000264A93420FD07B68254A93420BD07B68B8
:100F3000244A934207D07B68234A934203D07B68BC
:100F4000224A934208D1FB6823F44073FB603B685C
:100F5000DB68FA681343FB60FB6823F080023B68A0
:100F60005B691343FB607B68FA681A603B689A68A8
:100F70007B68DA623B681A687B689A627B68094A18
:100F8000934203D07B680B4A934203D13B681A69B2
:100F90007B681A637B6801225A6100BF1437BD4623
:100FA00080BC704700000140000400400008004081
:100FB000000C00400004014000400140004401409A
:100FC0000048014000180040001C00400020004084
:100FD00080B487B000AF786039607B681B6A23F00B
:100FE00001027B681A627B681B6A7B617B685B68B5
:100FF0003B617B689B69FB60FB6823F07003FB60CF
:10100000FB6823F00303FB603B681B68FA6813432B
:10101000FB607B6923F002037B613B689B687A6914
:1010200013437B617B68204A934203D07B681F4A4D
:1010300093420CD17B6923F008037B613B68DB683A
:101040007A6913437B617B6923F004037B617B68CE
:10105000154A934203D07B68144A934211D13B69ED
:1010600023F480733B613B6923F400733B613B686D
:101070005B693A6913433B613B689B693A69134377
:101080003B617B683A695A607B68FA689A613B68A1
:101090005A687B685A637B687A691A6200BF1C379A
:1010A000BD4680BC704700BF000001400004014005
:1010B00080B487B000AF786039607B681B6A23F02A
:1010C00010027B681A627B681B6A7B617B685B68C5
:1010D0003B617B689B69FB60FB6823F4E043FB603A
:1010E000FB6823F44073FB603B681B681B02FA68D3
:1010F0001343FB607B6923F020037B613B689B68A3
:101100001B017A6913437B617B68214A934203D0B8
:101110007B68204A93420DD17B6923F080037B6179
:101120003B68DB681B017A6913437B617B6923F0B1
:1011300040037B617B68164A934203D07B68154A63
:10114000934213D13B6923F480633B613B6923F4F1
:1011500000633B613B685B699B003A6913433B61F9
:101160003B689B699B003A6913433B617B683A6922
:101170005A607B68FA689A613B685A687B689A6330
:101180007B687A691A6200BF1C37BD4680BC704715
:10119000000001400004014080B487B000AF7860D7
:1011A00039607B681B6A23F480727B681A627B68F3
:1011B0001B6A7B617B685B683B617B68DB69FB600A
:1011C000FB6823F07003FB60FB6823F00303FB6004
:1011D0003B681B68FA681343FB607B6923F4007368
:1011E0007B613B689B681B027A6913437B617B6868
:1011F000214A934203D07B68204A93420DD17B69F8
:1012000023F400637B613B68DB681B027A6913434C
:101210007B617B6923F480637B617B68164A934220
:1012200003D07B68154A934213D13B6923F4805362
:101230003B613B6923F400533B613B685B691B01E5
:101240003A6913433B613B689B691B013A6913434D
:101250003B617B683A695A607B68FA68DA613B688F
:101260005A687B68DA637B687A691A6200BF1C3748
:10127000BD4680BC704700BF000001400004014033
:1012800080B487B000AF786039607B681B6A23F454
:1012900080527B681A627B681B6A3B617B685B6873
:1012A0007B617B68DB69FB60FB6823F4E043FB60E8
:1012B000FB6823F44073FB603B681B681B02FA6801
:1012C0001343FB603B6923F400533B613B689B681D
:1012D0001B033A6913433B617B68114A934203D075
:1012E0007B68104A934209D17B6923F480437B6178
:1012F0003B685B699B017A6913437B617B687A6910
:101300005A607B68FA68DA613B685A687B681A64DD
:101310007B683A691A6200BF1C37BD4680BC7047C3
:10132000000001400004014080B487B000AFF860C5
:10133000B9607A60BB6803F01F03012202FA03F36D
:101340007B61FB681A6A7B69DB431A40FB681A629F
:10135000FB681A6ABB6803F01F03796801FA03F39C
:101360001A43FB681A6200BF1C37BD4680BC704739
:1013700080B483B000AF786000BF0C37BD4680BC3E
:10138000704780B483B000AF786000BF0C37BD46B3
:1013900080BC704780B58CB000AF78600023BB6222
:1013A00000237B6200227968362002F0AFF83620F5
:1013B00002F0C8F80023BB60254B1B6C244A43F0A5
:1013C00010031364224B1B6C03F01003BB60BB685B
:1013D00007F10C0207F110031146184602F09CFABF
:1013E000FB69BB62BB6A002B03D102F06DFAF862A5
:1013F00004E002F069FA03465B00FB62FB6A154AEF
:10140000A2FB03239B0C013B7B62134B134A1A6024
:10141000114B40F2E732DA600F4A7B6A53600E4BA1
:1014200000221A610C4B00229A600B4B00229A6139
:101430000948FFF77FFA0346002B04D10648FFF75F
:10144000ADFA034600E0012318463037BD4680BDA3
:101450000038024083DE1B43C8000020001000401B
:1014600080B582B000AF7860FFF792F800BF083710
:10147000BD4680BD80B500AF0248FFF725FB00BF29
:1014800080BD00BFC800002080B582B000AF78608A
:101490007B68002B01D101233FE07B6893F8393052
:1014A000DBB2002B06D17B68002283F838207868F5
:1014B00004F014F87B68242283F839207B681B68C9
:1014C000DA687B681B6822F40052DA60786800F002
:1014D000B1F97B681B681A697B681B6822F490422B
:1014E0001A617B681B685A697B681B6822F02A02B4
:1014F0005A617B681B68DA687B681B6842F400529B
:10150000DA607B680022DA637B68202283F8392066
:101510007B68202283F83A20002318460837BD460E
:1015200080BD80B588B002AFF860B9603B601346FB
:10153000FB8000237B61FB6893F83930DBB2202B02
:1015400040F08380BB68002B02D0FB88002B01D1C8
:1015500001237BE0FB6893F83830012B01D1022393
:1015600074E0FB68012283F83820FB680022DA630C
:10157000FB68212283F83920FFF71CF87861FB68AB
:10158000FA889A84FB68FA88DA84FB68002283F878
:10159000382042E0FB68DB8C9BB2013B9AB2FB68CF
:1015A000DA84FB689B68B3F5805F22D13B680093C7
:1015B0007B6900228021F86800F0F2F80346002BD6
:1015C00001D0032342E0BB683B613B691B881A469C
:1015D000FB681B68C2F308025A60FB681B69002B9A
:1015E00003D1BB680233BB6017E0BB680133BB604B
:1015F00013E03B6800937B6900228021F86800F0CB
:10160000CFF80346002B01D003231FE0BB685A1C10
:10161000BA601A78FB681B685A60FB68DB8C9BB267
:10162000002BB7D13B6800937B6900224021F8680A
:1016300000F0B6F80346002B01D0032306E0FB6858
:10164000202283F83920002300E0022318461837AF
:10165000BD4680BD80B588B002AFF860B9603B6020
:101660001346FB8000237B61FB6893F83A30DBB2C2
:10167000202B40F09080BB68002B02D0FB88002B11
:1016800001D1012388E0FB6893F83830012B01D1A8
:10169000022381E0FB68012283F83820FB680022E6
:1016A000DA63FB68222283F83A20FEF783FF786131
:1016B000FB68FA889A85FB68FA88DA85FB6800225D
:1016C00083F838205CE0FB68DB8D9BB2013B9AB26B
:1016D000FB68DA85FB689B68B3F5805F2BD13B68BC
:1016E00000937B6900222021F86800F059F8034636
:1016F000002B01D003234FE0BB683B61FB681B69F3
:10170000002B0CD1FB681B685B689BB2C3F308031A
:101710009AB23B691A80BB680233BB6030E0FB6859
:101720001B685B689BB2DBB29AB23B691A80BB68EC
:101730000133BB6024E03B6800937B6900222021D9
:10174000F86800F02DF80346002B01D0032323E0B6
:10175000FB681B69002B08D1FB681B685968BB68D4
:101760005A1CBA60CAB21A700AE0FB681B685B6850
:10177000DAB2BB68591CB96002F07F02D2B21A70AB
:10178000FB68DB8D9BB2002B9DD1FB68202283F888
:101790003A20002300E0022318461837BD4680BDDA
:1017A00080B584B000AFF860B9603B601346FB7150
:1017B0002CE0BB69B3F1FF3F28D0BB69002B07D0F9
:1017C000FEF7F8FE02463B68D31ABA699A421DD268
:1017D000FB681B68DA68FB681B6822F4D072DA6069
:1017E000FB681B685A69FB681B6822F001025A619A
:1017F000FB68202283F83920FB68202283F83A20F6
:10180000FB68002283F8382003230FE0FB681B6885
:101810001A68BB681340BA689A420CBF01230023C0
:10182000DBB21A46FB799A42C3D000231846103720
:10183000BD4680BD2DE9B04FADF5027D00AFC7F8C4
:10184000FC01D7F8FC311B681B6923F44050D7F822
:10185000FC31D968D7F8FC311A6840EA01031361FA
:10186000D7F8FC319A68D7F8FC311B691A43D7F8CE
:10187000FC315B691A43D7F8FC31DB691343C7F8C5
:101880000432D7F8FC311B68DB6823F4164121F0E1
:101890000C01D7F8FC311A68D7F804320B43D36037
:1018A000D7F8FC311B685B6923F44070D7F8FC3132
:1018B0009969D7F8FC311A6840EA01035361D7F8F7
:1018C000FC31DB69B3F5004F40F04A82D7F8FC31B8
:1018D0001A68964B9A4206D0D7F8FC311A68944B96
:1018E0009A4240F0298102F003F8C7F80002D7F8C5
:1018F00000320022C7F8F031C7F8F421D7E97C455F
:1019000022462B469118C7F8D0105B41C7F8D43057
:10191000D7E9342321465118C7F8C81029464B414E
:10192000C7F8CC304FF000024FF00003D7E93289FE
:101930004946CB00414643EA51734146CA0010462E
:101940001946034622469B18C7F8E8312B460A463B
:1019500042EB0303C7F8EC31D7F8FC315B68002297
:10196000C7F8E031C7F8E421D7E978120B46DB1855
:10197000C7F8C030134642EB0303C7F8C430D7E9B9
:101980003023D7E97A01FEF72FFD02460B46694B5B
:10199000A3FB02235B091C01D7F800320022C7F821
:1019A000D831C7F8DC21D7E9768942464B469118F1
:1019B000C7F8B8105B41C7F8BC30D7E92E234146C1
:1019C0005118C7F8B01049464B41C7F8B4304FF032
:1019D00000024FF00003D7E92CAB5946CB0051462B
:1019E00043EA51735146CA0010461946034642461F
:1019F0009B18C7F8D0314B460A4642EB0303C7F8A1
:101A0000D431D7F8FC315B680022C7F8C831C7F879
:101A1000CC21D7E972120B46DB18C7F8A830134661
:101A200042EB0303C7F8AC30D7E92A23D7E97401A6
:101A3000FEF7DAFC02460B4611463E4BA3FB0123A0
:101A40005B09642202FB03F3CB1ADB0003F13202D1
:101A5000384BA3FB02235B095B0003F4F8731C44BF
:101A6000D7F800320022C7F8C031C7F8C421D7E93F
:101A7000708942464B469118C7F8A0105B41C7F8E1
:101A8000A430D7E9282341465118C7F89810494691
:101A90004B41C7F89C304FF000024FF00003D7E9EC
:101AA00026AB5946CB00514643EA51735146CA0012
:101AB00010461946034642469B18C7F8B8314B46B4
:101AC0000A4642EB0303C7F8BC31D7F8FC315B6828
:101AD0000022C7F8B031C7F8B421D7E96C120B4621
:101AE000DB18C7F89030134642EB0303C7F8943075
:101AF000D7E92423D7E96E01FEF776FC02460B46B0
:101B00000C4BA3FB02135B09642101FB03F3D31A03
:101B1000DB003233074AA2FB03235B0903F0070211
:101B2000D7F8FC311B6822449A604AE30010014058
:101B3000001401401F85EB5101F0C6FEC7F80002FA
:101B4000D7F800320022C7F8A831C7F8AC21D7E98E
:101B50006A4522462B469118C7F888105B41C7F8A2
:101B60008C30D7E92223214612EB010A294643EBA8
:101B7000010B4FF000024FF000034FEACB0343EAA2
:101B80005A734FEACA0292469B4623461AEB030356
:101B9000C7F8A0312B464BEB0303C7F8A431D7F8A5
:101BA000FC315B680022C7F89831C7F89C21D7E95F
:101BB00066120B46DB18C7F88030134642EB03036E
:101BC000C7F88430D7E92023D7E96801FEF70CFC79
:101BD00002460B46614BA3FB02235B091C01D7F8AD
:101BE00000320022C7F89031C7F89421D7E9648900
:101BF00042464B469118B9675B41FB67D7E91E2304
:101C000041465118396749464B417B674FF0000206
:101C10004FF00003D7E91CAB5946CB00514643EACD
:101C200051735146CA0010461946034642469B1856
:101C3000C7F888314B460A4642EB0303C7F88C319C
:101C4000D7F8FC315B680022C7F88031C7F88421DF
:101C5000D7E960120B46DB18BB66134642EB030361
:101C6000FB66D7E91A23D7E96201FEF7BDFB0246FE
:101C70000B461146394BA3FB01235B09642202FB8F
:101C800003F3CB1ADB0003F13202344BA3FB022334
:101C90005B095B0003F4F8731C44D7F800320022A0
:101CA000C7F87831C7F87C21D7E95E8942464B46B0
:101CB000911839665B417B66D7E918234146511874
:101CC000B96549464B41FB654FF000024FF00003F8
:101CD000D7E916AB5946CB00514643EA51735146FA
:101CE000CA0010461946034642469B18C7F8703191
:101CF0004B460A4642EB0303C7F87431D7F8FC3170
:101D00005B680022C7F86831C7F86C21D7E95A121E
:101D10000B46DB183B65134642EB03037B65D7E9B3
:101D20001423D7E95C01FEF75FFB02460B460B4B21
:101D3000A3FB02135B09642101FB03F3D31ADB004D
:101D40003233064AA2FB03235B0903F00702D7F8EC
:101D5000FC311B6822449A6033E200BF1F85EB51BF
:101D6000D7F8FC311A688D4B9A4206D0D7F8FC316F
:101D70001A688B4B9A4240F0178101F0B9FDC7F801
:101D80000002D7F800320022C7F86031C7F864219A
:101D9000D7E9584522462B469118B9645B41FB644C
:101DA000D7E91223214612EB0108294643EB01092A
:101DB0004FF000024FF000034FEAC90343EA5873A3
:101DC0004FEAC80290469946234618EB0303C7F82A
:101DD00058312B4649EB0303C7F85C31D7F8FC3187
:101DE0005B680022C7F85031C7F854214FF0000259
:101DF0004FF00003D7E9544529468B00214643EABA
:101E0000917321468A00D7E95601FEF7EDFA0246A2
:101E10000B46644BA3FB02235B091C01D7F800327D
:101E20000022C7F84831C7F84C21D7E95289424609
:101E30004B46911839645B417B64D7E910234146D6
:101E40005118B96349464B41FB634FF000024FF014
:101E50000003D7E90EAB5946CB00514643EA517314
:101E60005146CA0010461946034642469B18C7F819
:101E700040314B460A4642EB0303C7F84431D7F8DA
:101E8000FC315B680022C7F83831C7F83C214FF0BD
:101E900000024FF00003D7E94E8949468B004146C6
:101EA00043EA917341468A00D7E95001FEF79CFA54
:101EB00002460B4611463B4BA3FB01235B09642200
:101EC00002FB03F3CB1A1B013233364AA2FB032376
:101ED0005B0903F0F0031C44D7F800320022C7F876
:101EE0003031C7F83421D7E94C8942464B46911826
:101EF00039635B417B63D7E90C2341465118B962D2
:101F000049464B41FB624FF000024FF00003D7E916
:101F10000AAB5946CB00514643EA51735146CA00B9
:101F200010461946034642469B18C7F828314B46CF
:101F30000A4642EB0303C7F82C31D7F8FC315B6843
:101F40000022C7F82031C7F824214FF000024FF0DB
:101F50000003D7E9488949468B00414643EA91731B
:101F600041468A00D7E94A01FEF73EFA02460B468F
:101F70000C4BA3FB02135B09642101FB03F3D31A8F
:101F80001B013233074AA2FB03235B0903F00F0254
:101F9000D7F8FC311B6822449A6012E1001001401E
:101FA000001401401F85EB5101F08EFCC7F80002C0
:101FB000D7F800320022C7F81831C7F81C21D7E93A
:101FC000468942464B46911839625B417B62D7E9AC
:101FD000082341465418494643EB01054FF00002DF
:101FE0004FF00003EB0043EA5473E20014461D4631
:101FF0004346E318C7F810314B4645EB0303C7F8D7
:102000001431D7F8FC315B680022C7F80831C7F8F3
:102010000C214FF000024FF00003D7E9424529465A
:102020008B00214643EA917321468A00D7E9440197
:10203000FEF7DAF902460B46654BA3FB02235B0968
:102040001C01D7F800320022C7F80031C7F804217C
:10205000D7E9408942464B469118B9615B41FB6123
:10206000D7E9062341465118396149464B417B6106
:102070004FF000024FF00003D7E904AB5946CB0004
:10208000514643EA51735146CA0010461946034669
:1020900042469B18C7F8F8304B460A4642EB03030A
:1020A000C7F8FC30D7F8FC315B680022C7F8F03085
:1020B000C7F8F4204FF000024FF00003D7E93C8945
:1020C00049468B00414643EA917341468A00D7E96D
:1020D0003E01FEF789F902460B4611463C4BA3FB35
:1020E00001235B09642202FB03F3CB1A1B01323389
:1020F000374AA2FB03235B0903F0F0031C44D7F823
:1021000000320022C7F8E830C7F8EC20D7E93A8956
:1021100042464B469118B9605B41FB60D7E9022308
:1021200041465118396049464B417B604FF00002EF
:102130004FF00003D7E900AB5946CB00514643EAC4
:1021400051735146CA0010461946034642469B1831
:10215000C7F8E0304B460A4642EB0303C7F8E430C9
:10216000D7F8FC315B680022C7F8D830C7F8DC200C
:102170004FF000024FF00003D7E9368949468B0043
:10218000414643EA917341468A00D7E93801FEF798
:102190002BF902460B460E4BA3FB02135B0964218D
:1021A00001FB03F3D31A1B013233094AA2FB0323B9
:1021B0005B0903F00F02D7F8FC311B6822449A60D8
:1021C000FFE700BF07F50277BD46BDE8B08F00BF4F
:1021D0001F85EB5180B584B000AF78607B68002B21
:1021E00001D101232BE17B6893F83D30DBB2002B5A
:1021F00006D17B68002283F83C20786803F01CF944
:102200007B68242283F83D207B681B681A687B6802
:102210001B6822F001021A607B681B681A687B68E1
:102220001B6842F400421A607B681B681A687B686E
:102230001B6822F400421A6001F046FBF8607B68DC
:102240005B68814A934207D8FB68804A934294BFF7
:1022500001230023DBB206E0FB687D4A934294BF72
:1022600001230023DBB2002B01D00123E7E0FB6850
:10227000784AA2FB03239B0CBB607B681B685B68EE
:1022800023F03F017B681B68BA680A435A607B6889
:102290001B681B6A23F03F017B685B686A4A9342B4
:1022A00002D8BB68013309E0BB684FF4967202FBA9
:1022B00003F3694AA2FB03239B0901337A6812687E
:1022C0000B4313627B681B68DB6923F44F4222F0E7
:1022D000FF027B685B685C498B4219D8FB68591E1A
:1022E0007B685B685B00B1FBF3F3591C40F6FC7341
:1022F0000B40002B0AD0FB68591E7B685B685B00B3
:10230000B1FBF3F30133C3F30B0351E004234FE0BC
:102310007B689B68002B11D1FB68581E7B6859684D
:102320000B465B000B44B0FBF3F30133C3F30B0329
:10233000002B0CBF01230023DBB212E0FB68581E08
:102340007B6859680B469B000B4499000B44B0FB1B
:10235000F3F30133C3F30B03002B0CBF0123002362
:10236000DBB2002B01D0012322E07B689B68002BAD
:102370000ED1FB68581E7B6859680B465B000B4406
:10238000B0FBF3F30133C3F30B0343F400430FE05B
:10239000FB68581E7B6859680B469B000B449900EC
:1023A0000B44B0FBF3F30133C3F30B0343F440439B
:1023B000796809681343CB617B681B681B6823F04D
:1023C000C0017B68DA697B681B6A1A437B681B68FB
:1023D0000A431A607B681B689B6823F4034323F05D
:1023E000FF037A6811697A68D26811437A681268C3
:1023F0000B4393607B681B68DB6823F0FF017B68FD
:102400005A697B689B691A437B681B680A43DA60D8
:102410007B681B681A687B681B6842F001021A60BF
:102420007B6800221A647B68202283F83D207B6849
:1024300000221A637B68002283F83E20002318469E
:102440001037BD4680BD00BFA08601007F841E00FE
:10245000FF083D0083DE1B43D34D621080B588B07A
:1024600002AFF860084611461A4603467B810B46C8
:102470003B811346FB80FEF79DF87861FB6893F87B
:102480003D30DBB2202B40F0D9807B6900931923CB
:1024900001226D49F86800F0A3FD0346002B01D02E
:1024A0000223CCE0FB6893F83C30012B01D10223DE
:1024B000C5E0FB68012283F83C20FB681B681B68B1
:1024C00003F00103012B07D0FB681B681A68FB6847
:1024D0001B6842F001021A60FB681B681A68FB68FF
:1024E0001B6822F400621A60FB68212283F83D20F9
:1024F000FB68402283F83E20FB6800221A64FB68D8
:102500003A6A5A62FB68BA8C5A85FB685B8D9AB24C
:10251000FB681A85FB684D4ADA62F8883A8979893E
:102520007B690193BB6A00930346F86800F0DAFB0D
:102530000346002B52D0012381E07A69B96AF8681A
:1025400000F024FE0346002B0DD0FB681B6C042B0F
:1025500007D1FB681B681A68FB681B6842F40072AD
:102560001A6001236BE0FB685B6A1A78FB681B68E2
:102570001A61FB685B6A5A1CFB685A62FB681B8D18
:10258000013B9AB2FB681A85FB685B8D9BB2013BED
:102590009AB2FB685A85FB681B685B6903F0040309
:1025A000042B1BD1FB681B8D002B17D0FB685B6ACB
:1025B0001A78FB681B681A61FB685B6A5A1CFB6827
:1025C0005A62FB681B8D013B9AB2FB681A85FB6857
:1025D0005B8D9BB2013B9AB2FB685A85FB681B8DF1
:1025E000002BAAD17A69B96AF86800F010FE034698
:1025F000002B0DD0FB681B6C042B07D1FB681B68FC
:102600001A68FB681B6842F400721A60012316E026
:10261000FB681B681A68FB681B6842F400721A604A
:10262000FB68202283F83D20FB68002283F83E20CF
:10263000FB68002283F83C20002300E002231846B8
:102640001837BD4680BD00BF020010000000FFFF2C
:1026500080B58CB002AFF860084611461A460346B2
:102660007B810B463B811346FB80FDF7A3FF78621D
:10267000FB6893F83D30DBB2202B40F008827B6A88
:102680000093192301227B49F86800F0A9FC034656
:10269000002B01D00223FBE1FB6893F83C30012BB7
:1026A00001D10223F4E1FB68012283F83C20FB689E
:1026B0001B681B6803F00103012B07D0FB681B6834
:1026C0001A68FB681B6842F001021A60FB681B680D
:1026D0001A68FB681B6822F400621A60FB682222F9
:1026E00083F83D20FB68402283F83E20FB680022EF
:1026F0001A64FB683A6B5A62FB68BA8E5A85FB68AB
:102700005B8D9AB2FB681A85FB685B4ADA62F888CF
:102710003A8979897B6A0193BB6B00930346F86819
:1027200000F076FB0346002B01D00123B0E1FB68EB
:102730001B8D002B13D100233B62FB681B685B6978
:102740003B62FB681B689B693B623B6AFB681B68DA
:102750001A68FB681B6842F400721A6084E1FB6827
:102760001B8D012B1BD1FB681B681A68FB681B685B
:1027700022F480621A600023FB61FB681B685B69BE
:10278000FB61FB681B689B69FB61FB69FB681B685D
:102790001A68FB681B6842F400721A6064E1FB6807
:1027A0001B8D022B1BD1FB681B681A68FB681B681A
:1027B00022F480621A60FB681B681A68FB681B6859
:1027C00042F400621A600023BB61FB681B685B690E
:1027D000BB61FB681B689B69BB61BB6944E100236B
:1027E0007B61FB681B685B697B61FB681B689B699D
:1027F0007B617B6938E1FB681B8D032B00F2F18064
:10280000FB681B8D012B23D17A6AB96BF86800F045
:102810003FFD0346002B01D0012339E1FB681B6813
:102820001A69FB685B6AD2B21A70FB685B6A5A1C51
:10283000FB685A62FB681B8D013B9AB2FB681A85E4
:10284000FB685B8D9BB2013B9AB2FB685A850BE13A
:10285000FB681B8D022B4ED17B6A0093BB6B002261
:102860000649F86800F0BCFB0346002B08D00123A2
:102870000EE100BF020010000000FFFF0400010095
:10288000FB681B681A68FB681B6842F400721A60D8
:10289000FB681B681A69FB685B6AD2B21A70FB6836
:1028A0005B6A5A1CFB685A62FB681B8D013B9AB23B
:1028B000FB681A85FB685B8D9BB2013B9AB2FB6893
:1028C0005A85FB681B681A69FB685B6AD2B21A708A
:1028D000FB685B6A5A1CFB685A62FB681B8D013BF4
:1028E0009AB2FB681A85FB685B8D9BB2013B9AB27A
:1028F000FB685A85B8E07B6A0093BB6B002266498F
:10290000F86800F06DFB0346002B01D00123BFE007
:10291000FB681B681A68FB681B6822F480621A60F7
:10292000FB681B681A69FB685B6AD2B21A70FB68A5
:102930005B6A5A1CFB685A62FB681B8D013B9AB2AA
:10294000FB681A85FB685B8D9BB2013B9AB2FB6802
:102950005A857B6A0093BB6B00224F49F86800F0F0
:102960003FFB0346002B01D0012391E0FB681B686D
:102970001A68FB681B6842F400721A60FB681B68E7
:102980001A69FB685B6AD2B21A70FB685B6A5A1CF0
:10299000FB685A62FB681B8D013B9AB2FB681A8583
:1029A000FB685B8D9BB2013B9AB2FB685A85FB6862
:1029B0001B681A69FB685B6AD2B21A70FB685B6AB3
:1029C0005A1CFB685A62FB681B8D013B9AB2FB687C
:1029D0001A85FB685B8D9BB2013B9AB2FB685A85F6
:1029E00042E07A6AB96BF86800F052FC0346002BAB
:1029F00001D001234CE0FB681B681A69FB685B6A25
:102A0000D2B21A70FB685B6A5A1CFB685A62FB6898
:102A10001B8D013B9AB2FB681A85FB685B8D9BB2EC
:102A2000013B9AB2FB685A85FB681B685B6903F03F
:102A30000403042B18D1FB681B681A69FB685B6AE6
:102A4000D2B21A70FB685B6A5A1CFB685A62FB6858
:102A50001B8D013B9AB2FB681A85FB685B8D9BB2AC
:102A6000013B9AB2FB685A85FB681B8D002B7FF4F3
:102A7000C2AEFB68202283F83D20FB68002283F869
:102A80003E20FB68002283F83C20002300E0022364
:102A900018462837BD4680BD0400010080B58AB0C5
:102AA00002AFF8607A603B600B467B81FDF782FDE8
:102AB000F8610123BB61FB6893F83D30DBB2202B4A
:102AC00040F00781FB690093192301228349F868CC
:102AD00000F086FA0346002B01D00223FAE0FB68DF
:102AE00093F83C30012B01D10223F3E0FB68012273
:102AF00083F83C20FB681B681B6803F00103012B73
:102B000007D0FB681B681A68FB681B6842F001026B
:102B10001A60FB681B681A68FB681B6822F4006275
:102B20001A60FB68242283F83D20FB6800221A64A7
:102B3000FB686B4ADA62FB681B681A68FB681B68F3
:102B400042F480721A60FB6900933B6800224FF0E8
:102B50000111F86800F044FA0346002B0DD0FB6821
:102B60001B681B6803F48073B3F5807F03D1FB6897
:102B70004FF400721A640323ACE07B89DBB21A467F
:102B8000FB681B6802F0FE021A61FDF713FDF86195
:102B9000FB681B685B6903F00203C3F34003DBB20D
:102BA000FB75FB681B685B6903F48063C3F38023D8
:102BB000DBB2BB7520E0FDF7FDFC0246FB69D31AD2
:102BC0003A689A4202D33B68002B03D1FB68A022EB
:102BD00083F83D20FB681B685B6903F00203C3F3C5
:102BE0004003DBB2FB75FB681B685B6903F4806321
:102BF000C3F38023DBB2BB75FB6893F83D30DBB2D7
:102C0000A02B05D0FB7D002B02D1BB7D002BD2D0A9
:102C1000FB68202283F83D20FB681B685B6903F09A
:102C20000203022B29D1FB681B681A68FB681B682A
:102C300042F400721A6000233B61FB681B685B6909
:102C40003B61FB681B689B693B613B69FB690093C7
:102C5000192301222149F86800F0C2F90346002B2C
:102C600001D0012336E0FB68202283F83D20FB6879
:102C7000002283F83C2000232CE0FB681B681A68C4
:102C8000FB681B6842F400721A60FB681B686FF4F3
:102C900080625A61FB690093192301220F49F86889
:102CA00000F09EF90346002B01D0012312E0BB691E
:102CB0000133BB61BA697B689A42FFF43CAFFB68A1
:102CC000202283F83D20FB68002283F83C2001236A
:102CD00000E0022318462037BD4680BD02001000E8
:102CE0000000FFFF80B588B002AFF86008461146CB
:102CF0001A4603467B810B463B811346FB80FB68EB
:102D00001B681A68FB681B6842F480721A607B6A51
:102D100000933B6A00224FF00111F86800F060F95F
:102D20000346002B0DD0FB681B681B6803F48073FF
:102D3000B3F5807F03D1FB684FF400721A6403235C
:102D40005FE07B89DBB21A46FB681B6802F0FE027B
:102D50001A617B6A3A6A2D49F86800F098F90346CF
:102D6000002B01D001234CE000237B61FB681B6832
:102D70005B697B61FB681B689B697B617B697A6A25
:102D8000396AF86800F002FA0346002B0DD0FB68A0
:102D90001B6C042B07D1FB681B681A68FB681B6857
:102DA00042F400721A6001232BE0FB88012B05D14D
:102DB0003B89DAB2FB681B681A6121E03B891B0A78
:102DC0009BB2DAB2FB681B681A617A6A396AF868E2
:102DD00000F0DCF90346002B0DD0FB681B6C042BC4
:102DE00007D1FB681B681A68FB681B6842F4007215
:102DF0001A60012305E03B89DAB2FB681B681A619F
:102E0000002318461837BD4680BD00BF02000100F0
:102E100080B588B002AFF860084611461A460346EE
:102E20007B810B463B811346FB80FB681B681A685D
:102E3000FB681B6842F480621A60FB681B681A68B2
:102E4000FB681B6842F480721A607B6A00933B6ADD
:102E500000224FF00111F86800F0C2F80346002B81
:102E60000DD0FB681B681B6803F48073B3F5807F8B
:102E700003D1FB684FF400721A640323AAE07B8934
:102E8000DBB21A46FB681B6802F0FE021A617B6A1D
:102E90003A6A5249F86800F0FAF80346002B01D06C
:102EA000012397E000237B61FB681B685B697B6102
:102EB000FB681B689B697B617B697A6A396AF86881
:102EC00000F064F90346002B0DD0FB681B6C042B4B
:102ED00007D1FB681B681A68FB681B6842F4007224
:102EE0001A60012376E0FB88012B05D13B89DAB219
:102EF000FB681B681A6121E03B891B0A9BB2DAB2AE
:102F0000FB681B681A617A6A396AF86800F03EF952
:102F10000346002B0DD0FB681B6C042B07D1FB680C
:102F20001B681A68FB681B6842F400721A60012370
:102F300050E03B89DAB2FB681B681A617A6A396A29
:102F4000F86800F023F90346002B0DD0FB681B6CDA
:102F5000042B07D1FB681B681A68FB681B6842F4E6
:102F600000721A60012335E0FB681B681A68FB6871
:102F70001B6842F480721A607B6A00933B6A0022ED
:102F80004FF00111F86800F02BF80346002B0DD02C
:102F9000FB681B681B6803F48073B3F5807F03D163
:102FA000FB684FF400721A64032313E07B89DBB2E1
:102FB00043F00103DAB2FB681B681A617B6A3A6A64
:102FC0000649F86800F063F80346002B01D001239E
:102FD00000E0002318461837BD4680BD02000100FE
:102FE00080B584B000AFF860B9603B601346FB71F8
:102FF00025E03B68B3F1FF3F21D0FDF7DBFA024645
:10300000BB69D31A3A689A4202D33B68002B16D1A7
:10301000FB6800221A63FB68202283F83D20FB68CE
:10302000002283F83E20FB681B6C43F02002FB6803
:103030001A64FB68002283F83C20012323E0BB686C
:103040001B0CDBB2012B0DD1FB681B685B69DA43FB
:10305000BB6813409BB2002B0CBF01230023DBB2E3
:103060001A460CE0FB681B689B69DA43BB68134097
:103070009BB2002B0CBF01230023DBB21A46FB7965
:103080009A42B6D0002318461037BD4680BD80B5A1
:1030900084B000AFF860B9607A603B6051E0FB68D3
:1030A0001B685B6903F48063B3F5806F23D1FB6811
:1030B0001B681A68FB681B6842F400721A60FB68A0
:1030C0001B686FF480625A61FB6800221A63FB6818
:1030D000202283F83D20FB68002283F83E20FB6815
:1030E0001B6C43F00402FB681A64FB68002283F83F
:1030F0003C20012346E07B68B3F1FF3F21D0FDF780
:1031000059FA02463B68D31A7A689A4202D37B681E
:10311000002B16D1FB6800221A63FB68202283F87B
:103120003D20FB68002283F83E20FB681B6C43F0C7
:103130002002FB681A64FB68002283F83C2001230C
:1031400020E0BB681B0CDBB2012B0CD1FB681B68B9
:103150005B69DA43BB6813409BB2002B14BF0123A9
:103160000023DBB20BE0FB681B689B69DA43BB689A
:1031700013409BB2002B14BF01230023DBB2002BB2
:103180008DD1002318461037BD4680BD80B584B070
:1031900000AFF860B9607A602DE0F86800F0CEF812
:1031A0000346002B01D001232DE0BB68B3F1FF3FA4
:1031B00021D0FDF7FFF902467B68D31ABA689A421C
:1031C00002D3BB68002B16D1FB6800221A63FB6890
:1031D000202283F83D20FB68002283F83E20FB6814
:1031E0001B6C43F02002FB681A64FB68002283F822
:1031F0003C20012307E0FB681B685B6903F0800348
:10320000802BCAD1002318461037BD4680BD80B53B
:1032100084B000AFF860B9607A602DE0F86800F023
:103220008DF80346002B01D001232DE0BB68B3F1DC
:10323000FF3F21D0FDF7BEF902467B68D31ABA687A
:103240009A4202D3BB68002B16D1FB6800221A6396
:10325000FB68202283F83D20FB68002283F83E2093
:10326000FB681B6C43F02002FB681A64FB680022B9
:1032700083F83C20012307E0FB681B685B6903F0CF
:103280000403042BCAD1002318461037BD4680BD65
:1032900080B584B000AFF860B9607A6042E0FB6846
:1032A0001B685B6903F01003102B19D1FB681B68C6
:1032B0006FF010025A61FB6800221A63FB6820223B
:1032C00083F83D20FB68002283F83E20FB681A6CDF
:1032D000FB681A64FB68002283F83C20012329E084
:1032E000FDF768F902467B68D31ABA689A4202D39E
:1032F000BB68002B16D1FB6800221A63FB682022F2
:1033000083F83D20FB68002283F83E20FB681B6C9D
:1033100043F02002FB681A64FB68002283F83C201B
:10332000012307E0FB681B685B6903F04003402B47
:10333000B5D1002318461037BD4680BD80B483B098
:1033400000AF78607B681B685B6903F48063B3F54A
:10335000806F1BD17B681B686FF480625A617B6849
:1033600000221A637B68202283F83D207B680022BC
:1033700083F83E207B681B6C43F004027B681A6470
:103380007B68002283F83C20012300E000231846DC
:103390000C37BD4680BC704780B485B000AF786004
:1033A0007B6803F00703FB600C4BDB68BB60BA680B
:1033B0004FF6FF031340BB60FB681A02BB68134360
:1033C00043F0BF6343F40033BB60044ABB68D3607F
:1033D00000BF1437BD4680BC704700BF00ED00E061
:1033E00080B400AF044BDB681B0A03F007031846E8
:1033F000BD4680BC704700BF00ED00E080B483B0E4
:1034000000AF0346FB7197F90730002B0BDBFB790C
:1034100003F01F02064997F907305B09012000FA03
:1034200002F241F8232000BF0C37BD4680BC704734
:1034300000E100E080B483B000AF03463960FB7167
:1034400097F90730002B0ADB3B68DAB20C4997F991
:1034500007301201D2B20B4483F800230AE03B6824
:10346000DAB20849FB7903F00F03043B1201D2B230
:103470000B441A7600BF0C37BD4680BC704700BFB6
:1034800000E100E000ED00E080B489B000AFF8603A
:10349000B9607A60FB6803F007037B617B69033BDB
:1034A000042B04D87B69C3F10703FB6101E004230B
:1034B000FB617B690433062B03D97B69033BBB614A
:1034C00001E00023BB614FF0FF32FB6902FA03F316
:1034D000DA43BB681A40BB699A404FF0FF31BB69C1
:1034E00001FA03F3D9437B680B4013431846243792
:1034F000BD4680BC704780B582B000AF7860786808
:10350000FFF74AFF00BF0837BD4680BD80B586B0D3
:1035100000AF0346B9607A60FB7300237B61FFF75D
:103520005FFF78617A68B9687869FFF7ADFF024696
:1035300097F90F3011461846FFF77CFF00BF183788
:10354000BD4680BD80B582B000AF0346FB7197F9E0
:1035500007301846FFF752FF00BF0837BD4680BD51
:1035600080B584B000AF786039607B68002B01D1F2
:103570000123CCE0684B1B6803F00F033A689A42C2
:103580000CD9654B3A68D2B21A70634B1B6803F0D2
:103590000F033A689A4201D00123B8E07B681B68A8
:1035A00003F00203002B20D07B681B6803F00403A8
:1035B000002B05D0594B9B68584A43F4E053936065
:1035C0007B681B6803F00803002B05D0534B9B68F6
:1035D000524A43F460439360504B9B6823F0F002DF
:1035E0007B689B684D4913438B607B681B6803F0C5
:1035F0000103002B44D07B685B68012B07D1474B4C
:103600001B6803F40033002B19D101237FE07B6892
:103610005B68022B03D07B685B68032B07D13F4BB1
:103620001B6803F00073002B09D101236FE03B4BB3
:103630001B6803F00203002B01D1012367E0374B25
:103640009B6823F003027B685B68344913438B60FB
:10365000FCF7B0FFF8600AE0FCF7ACFF0246FB683D
:10366000D31A41F28832934201D903234FE02B4B06
:103670009B6803F00C027B685B689B009A42EBD16D
:10368000254B1B6803F00F033A689A420CD2224B79
:103690003A68D2B21A70204B1B6803F00F033A68E5
:1036A0009A4201D0012332E07B681B6803F00403D7
:1036B000002B08D0194B9B6823F4E0527B68DB6831
:1036C000164913438B607B681B6803F00803002BCB
:1036D00009D0124B9B6823F460427B681B69DB00B6
:1036E0000E4913438B6000F021F802460B4B9B6898
:1036F0001B0903F00F030A49CB5C22FA03F3094AC2
:103700001360094B1B681846FDF744FE002318465A
:103710001037BD4680BD00BF003C0240003802406B
:103720006088000844000020000000202DE9B04F10
:1037300090B000AF00237B630023FB6300233B6357
:103740000023BB63584B9B6803F00C03082B0DD080
:10375000082B00F2A080002B02D0042B03D09AE0AB
:10376000524BBB639AE0524BBB6397E04E4B5B6896
:1037700003F03F037B634C4B5B6803F48003002B37
:1037800027D0494B5B689B0900223B627A623B6A07
:10379000C3F308000021464B03FB01F2002300FBAA
:1037A00003F31344424AA0FB0221F962BA62FA6AA7
:1037B0001344FB627B6B0022BB61FA61D7E90623ED
:1037C000D7E90A01FCF710FE02460B461346FB63DD
:1037D00053E0354B5B689B0900223B617A613B6992
:1037E000C3F3080A4FF0000B52465B464FF000004F
:1037F0004FF00001590141EAD261500102460B46E7
:10380000B2EB0A0863EB0B094FF000024FF0000324
:103810004FEA891343EA98634FEA8812B2EB08042F
:1038200063EB09054FF000024FF00003EB0043EAA1
:103830005473E20014461D4614EB0A033B6045EB4B
:103840000B037B604FF000024FF00003D7E9004507
:1038500029468B02214643EA915321468A021046AB
:1038600019467B6B0022BB60FA60D7E90223FCF7A4
:10387000BBFD02460B461346FB630B4B5B681B0C00
:1038800003F0030301335B003B63FA6B3B6BB2FB5A
:10389000F3F3BB6302E0054BBB6300BFBB6B184691
:1038A0004037BD46BDE8B08F003802400024F40028
:1038B00080BA8C0180B400AF024B1B681846BD462D
:1038C00080BC70474400002080B500AFFFF7F2FFD6
:1038D0000246054B9B689B0A03F007030349CB5C38
:1038E00022FA03F3184680BD0038024070880008B1
:1038F00080B500AFFFF7DEFF0246054B9B685B0B10
:1039000003F007030349CB5C22FA03F3184680BD9A
:10391000003802407088000880B483B000AF78603F
:1039200039607B680F221A60114B9B6803F0030219
:103930007B685A600E4B9B6803F0F0027B689A60CC
:103940000B4B9B6803F4E0527B68DA60084B9B6882
:10395000DB0803F4E0527B681A61064B1B6803F036
:103960000F023B681A6000BF0C37BD4680BC704731
:1039700000380240003C024080B586B000AF78605D
:1039800000233B617B681B6803F00103002B75D0AB
:10399000884B9B6803F00C03042B0CD0854B9B6871
:1039A00003F00C03082B12D1824B5B6803F48003F5
:1039B000B3F5800F0BD17F4B1B6803F40033002B52
:1039C0005BD07B685B68002B57D101230AE27B68E0
:1039D0005B68B3F5803F06D1764B1B68754A43F4AC
:1039E000803313601DE07B685B68B3F5A02F0CD1BA
:1039F000704B1B686F4A43F4802313606D4B1B6848
:103A00006C4A43F4803313600BE06A4B1B68694ACD
:103A100023F480331360674B1B68664A23F48023CA
:103A200013607B685B68002B13D0FCF7C3FD386123
:103A300008E0FCF7BFFD02463B69D31A642B01D9AD
:103A40000323CFE15B4B1B6803F40033002BF0D062
:103A500014E0FCF7AFFD386108E0FCF7ABFD02466F
:103A60003B69D31A642B01D90323BBE1514B1B687B
:103A700003F40033002BF0D100E000BF7B681B682B
:103A800003F00203002B63D04A4B9B6803F00C0346
:103A9000002B0BD0474B9B6803F00C03082B1CD169
:103AA000444B5B6803F48003002B16D1414B1B6829
:103AB00003F00203002B05D07B68DB68012B01D0EB
:103AC00001238FE13B4B1B6823F0F8027B681B69E5
:103AD000DB00384913430B603AE07B68DB68002B5E
:103AE00020D0354B01221A60FCF764FD386108E0F4
:103AF000FCF760FD02463B69D31A022B01D9032370
:103B000070E12C4B1B6803F00203002BF0D0294B13
:103B10001B6823F0F8027B681B69DB00254913430F
:103B20000B6015E0244B00221A60FCF743FD38615E
:103B300008E0FCF73FFD02463B69D31A022B01D98E
:103B400003234FE11B4B1B6803F00203002BF0D152
:103B50007B681B6803F00803002B37D07B685B6928
:103B6000002B16D0154B01221A60FCF723FD38619B
:103B700008E0FCF71FFD02463B69D31A022B01D96E
:103B800003232FE10B4B5B6F03F00203002BF0D0FC
:103B90001CE00A4B00221A60FCF70CFD38610FE0B4
:103BA000FCF708FD02463B69D31A022B08D9032310
:103BB00018E100BF0038024000004742800E474233
:103BC0008A4B5B6F03F00203002BE9D17B681B6813
:103BD00003F00403002B00F097800023FB75834B58
:103BE0001B6C03F08053002B0FD10023FB607F4B35
:103BF0001B6C7E4A43F0805313647C4B1B6C03F0B8
:103C00008053FB60FB680123FB75794B1B6803F451
:103C10008073002B18D1764B1B68754A43F4807370
:103C20001360FCF7C7FC386108E0FCF7C3FC0246F0
:103C30003B69D31A022B01D90323D3E06C4B1B68D9
:103C400003F48073002BF0D07B689B68012B06D1B6
:103C5000664B1B6F654A43F0010313671CE07B68EA
:103C60009B68052B0CD1614B1B6F604A43F004032A
:103C700013675E4B1B6F5D4A43F0010313670BE054
:103C80005A4B1B6F594A23F001031367574B1B6FA5
:103C9000564A23F0040313677B689B68002B15D0FA
:103CA000FCF788FC38610AE0FCF784FC02463B69BB
:103CB000D31A41F28832934201D9032392E04B4B4D
:103CC0001B6F03F00203002BEED014E0FCF772FC34
:103CD00038610AE0FCF76EFC02463B69D31A41F2F8
:103CE0008832934201D903237CE0404B1B6F03F0E1
:103CF0000203002BEED1FB7D012B05D13B4B1B6C4E
:103D00003A4A23F0805313647B689B69002B68D088
:103D1000364B9B6803F00C03082B60D07B689B69D3
:103D2000022B45D1334B00221A60FCF743FC38616B
:103D300008E0FCF73FFC02463B69D31A022B01D98D
:103D400003234FE0294B1B6803F00073002BF0D1D5
:103D50007B68DA697B681B6A1A437B685B6A9B0134
:103D60001A437B689B6A5B08013B1B041A437B6810
:103D7000DB6A1B061A437B681B6B1B071B4913433B
:103D80004B601C4B01221A60FCF714FC386108E000
:103D9000FCF710FC02463B69D31A022B01D903231E
:103DA00020E0124B1B6803F00073002BF0D018E0EA
:103DB000104B00221A60FCF7FDFB386108E0FCF7AD
:103DC000F9FB02463B69D31A022B01D9032309E010
:103DD000064B1B6803F00073002BF0D101E00123B8
:103DE00000E0002318461837BD4680BD0038024069
:103DF000007000406000474290B587B000AFF860A7
:103E00007A601A460B46FB7213463B81FB685C687E
:103E1000FB6898683B89F97A7A68A04778617B6982
:103E200018461C37BD4690BD90B587B000AFF8600E
:103E30007A601A460B46FB7213463B81FB681C688E
:103E4000FB6898683B89F97A7A68A04778617B6952
:103E500018461C37BD4690BD80B584B000AF786071
:103E60000B46FB7007F10802012310217868FFF769
:103E7000C3FFF860FB68002B0FD1FB7803F003034E
:103E8000DAB23B7A62F383033B7207F10802012343
:103E900010217868FFF7C8FFF860FB6818461037F4
:103EA000BD4680BD80B584B000AF78600B46FB7026
:103EB00007F10802012310217868FFF79DFFF860E1
:103EC000FB68002B0FD1FB7803F00703DAB23B7AD3
:103ED00062F306133B7207F1080201231021786890
:103EE000FFF7A2FFF860FB6818461037BD4680BD9B
:103EF00080B584B000AF7860396001233A680F2143
:103F00007868FFF779FFF860FB6818461037BD4600
:103F100080BD80B584B000AF78600B46FB7007F1C0
:103F20000802012311217868FFF766FFF860FB683B
:103F3000002B0FD1FB7803F00103DAB23B7A62F376
:103F400082033B7207F10802012311217868FFF711
:103F50006BFFF860FB6818461037BD4680BD80B522
:103F600084B000AF7860396007F1080201231121A5
:103F70007868FFF741FFF8603B7AC3F38003DBB258
:103F80001A463B681A70FB6818461037BD4680BD5C
:103F900090B587B000AFF8607A601A460B46FB72A6
:103FA00013463B81FB685C68FB6898683B89F97A3B
:103FB0007A68A04778617B6918461C37BD4690BD7A
:103FC00090B587B000AFF8607A601A460B46FB7276
:103FD00013463B81FB681C68FB6898683B89F97A4B
:103FE0007A68A04778617B6918461C37BD4690BD4A
:103FF00080B584B000AF78600B46FB7007F1080213
:10400000012320217868FFF7C3FFF860FB68002BCD
:104010000FD1FB7803F00303DAB23B7A62F30103BA
:104020003B7207F10802012320217868FFF7C8FFDF
:10403000F860FB6818461037BD4680BD80B584B077
:1040400000AF78600B46FB7007F1080201232021C6
:104050007868FFF79DFFF860FB68002B0FD1FB78B5
:1040600003F00103DAB23B7A62F382033B7207F199
:104070000802012320217868FFF7A2FFF860FB689F
:1040800018461037BD4680BD80B584B000AF78605B
:10409000396001233A680F217868FFF779FFF860EB
:1040A000FB6818461037BD4680BD80B584B000AFB0
:1040B00078600B46FB7007F1080201232021786825
:1040C000FFF766FFF860FB68002B0FD1FB7803F069
:1040D0000103DAB23B7A62F3C7133B7207F10802BD
:1040E000012320217868FFF76BFFF860FB68184612
:1040F0001037BD4680BD80B584B000AF78603960B0
:1041000007F10B02012330217868FFF741FFF860C7
:10411000FB7A07EE903AB8EEE77AF0EE006AC7EE67
:10412000267A3B68C3ED007AFB6818461037BD4617
:1041300080BD80B584B000AF7860396007F10B02B4
:10414000012331217868FFF723FFF860FB7A07EE3F
:10415000903AB8EEE77AF0EE006AC7EE267A3B684E
:10416000C3ED007AFB6818461037BD4680BD80B5A8
:1041700086B000AF7860396007F10F020123322169
:104180007868FFF705FF78617B69002B1BD107F189
:104190001002012335217868FFF7FAFE78613B7C35
:1041A000C3F30103DBB2FB74FB7C1B02FA7B1344F9
:1041B00007EE903AB8EEE77AF2EE006AC7EE267A9A
:1041C0003B68C3ED007A7B6918461837BD4680BD51
:1041D00080B586B000AF7860396007F10F02012327
:1041E00033217868FFF7D4FE78617B69002B1BD1FF
:1041F00007F11002012335217868FFF7C9FE7861C5
:104200003B7CC3F38103DBB2FB74FB7C1B02FA7BB8
:10421000134407EE903AB8EEE77AF2EE006AC7EE82
:10422000267A3B68C3ED007A7B6918461837BD468D
:1042300080BD80B584B000AF7860396007F10802B6
:10424000022336217868FFF7A3FEF8607B7A1B0211
:104250009BB23A7A13449BB27B81B7F90A3007EEDE
:10426000903AF8EEE77A3B68C3ED007AFB681846AF
:104270001037BD4680BD80B584B000AF786039602E
:1042800007F1080202233A217868FFF781FEF860FF
:104290007B7A1B029BB23A7A13449BB27B81B7F9BB
:1042A0000A3007EE903AF8EEE77A3B68C3ED007A01
:1042B000FB6818461037BD4680BD80B584B000AF9E
:1042C0007860396007F1080202233C217868FFF723
:1042D0005FFEF8607B7A1B029BB23A7A13449BB272
:1042E0007B81B7F90A3007EE903AF8EEE77A3B683F
:1042F000C3ED007AFB6818461037BD4680BD80B517
:1043000084B000AF7860396007F1080202233E21D3
:104310007868FFF73DFEF8607B7A1B029BB23A7A21
:1043200013449BB27B81B7F90A3007EE903AF8EE5E
:10433000E77A3B68C3ED007AFB6818461037BD4644
:1043400080BD90B587B000AFF8607A601A460B4622
:10435000FB7213463B81FB685C68FB6898683B898D
:10436000F97A7A68A04778617B6918461C37BD46A0
:1043700090BD90B587B000AFF8607A601A460B46E2
:10438000FB7213463B81FB681C68FB6898683B899D
:10439000F97A7A68A04778617B6918461C37BD4670
:1043A00090BD80B584B000AF78600B46FB7007F11C
:1043B0000802012310217868FFF7C3FFF860FB684B
:1043C000002B0FD1FB7803F00303DAB23B7A62F3E0
:1043D00083033B7207F10802012310217868FFF77D
:1043E000C8FFF860FB6818461037BD4680BD80B531
:1043F00084B000AF78600B46FB7007F10802012320
:1044000010217868FFF79DFFF860FB68002B0FD143
:10441000FB7803F00F03DAB23B7A62F307133B72C7
:1044200007F10802012310217868FFF7A2FFF86066
:10443000FB6818461037BD4680BD80B584B000AF1C
:1044400078600B46FB7007F10802012311217868A0
:10445000FFF777FFF860FB68002B0FD1FB7803F0C4
:104460000703DAB23B7A62F343033B7207F10802B7
:10447000012311217868FFF77CFFF860FB6818467C
:104480001037BD4680BD80B584B000AF78600B4664
:10449000FB7007F10802012311217868FFF751FF33
:1044A000F860FB68002B0FD1FB7803F00F03DAB242
:1044B0003B7A62F307133B7207F1080201231121D3
:1044C0007868FFF756FFF860FB6818461037BD465E
:1044D00080BD80B584B000AF78600B46FB7007F1FB
:1044E0000802012312217868FFF72BFFF860FB68B0
:1044F000002B0FD1FB7803F00103DAB23B7A62F3B1
:1045000086133B7207F10802012312217868FFF736
:1045100030FFF860FB6818461037BD4680BD80B597
:1045200084B000AF7860396001233A680F21786861
:10453000FFF707FFF860FB6818461037BD4680BDDF
:1045400080B584B000AF78600B46FB7007F10802BD
:10455000012312217868FFF7F4FEF860FB68002B56
:104560000FD1FB7803F00103DAB23B7A62F3000368
:104570003B7207F10802012312217868FFF7F9FE68
:10458000F860FB6818461037BD4680BD80B584B022
:1045900000AF7860396007F10802012312217868C2
:1045A000FFF7CFFEF8603B7AC3F30003DBB21A4695
:1045B0003B681A70FB6818461037BD4680BD80B551
:1045C00084B000AF78600B46FB7007F1080201234E
:1045D00010217868FFF7B5FEF860FB68002B0FD15B
:1045E000FB7803F00103DAB23B7A62F300033B721B
:1045F00007F10802012310217868FFF7BAFEF8607E
:10460000FB6818461037BD4680BD80B584B000AF4A
:1046100078600B46FB7007F10802012317217868C8
:10462000FFF78FFEF860FB68002B20D1FB781B0999
:1046300003F00103DAB23B7A62F3C3033B72FB7807
:1046400003F00303DAB23B7A62F346133B723B7A20
:1046500043F080033B723B7A23F004033B7207F183
:104660000802012317217868FFF783FEF860FB68D2
:1046700018461037BD4680BD80B586B000AF786063
:104680000B46FB7007F10802012316217868FFF73B
:1046900058FE78617B69002B57D1FB781B0903F02A
:1046A0000303DAB23B7A62F305133B72FB78DB0952
:1046B000DBB203F00103DAB23B7A62F386133B729A
:1046C00007F10802012316217868FFF752FE78618E
:1046D0007B69002B39D107F10C0201231521786881
:1046E000FFF72FFE78617B69002B2ED1FB7803F05A
:1046F0000303DAB23B7B62F301033B7307F10C0265
:10470000012315217868FFF734FE78617B69002B5F
:104710001BD107F11002012313217868FFF711FE66
:1047200078617B69002B10D1FB78DB0803F0010373
:10473000DAB23B7C62F341033B7407F110020123C0
:1047400013217868FFF715FE78617B6918461837E2
:10475000BD4680BD90B587B000AFF8607A601A465C
:104760000B46FB7213463B81FB685C68FB689868EC
:104770003B89F97A7A68A04778617B6918461C37CB
:10478000BD4690BD90B587B000AFF8607A601A461C
:104790000B46FB7213463B81FB681C68FB689868FC
:1047A0003B89F97A7A68A04778617B6918461C379B
:1047B000BD4690BD80B584B000AF78600B46FB70FD
:1047C00007F10802012360217868FFF7C3FFF86052
:1047D000FB68002B0FD1FB7803F00303DAB23B7ABE
:1047E00062F301033B7207F108020123602178683C
:1047F000FFF7C8FFF860FB6818461037BD4680BD5C
:1048000080B584B000AF78600B46FB7007F10802FA
:10481000012360217868FFF79DFFF860FB68002B9B
:104820000FD1FB7803F00303DAB23B7A62F3830320
:104830003B7207F10802012360217868FFF7A2FFAD
:10484000F860FB6818461037BD4680BD80B584B05F
:1048500000AF78600B46FB7007F10802012360216E
:104860007868FFF777FFF860FB68002B0FD1FB78C3
:1048700003F00103DAB23B7A62F3C7133B7207F12C
:104880000802012360217868FFF77CFFF860FB686D
:1048900018461037BD4680BD80B584B000AF786043
:1048A0000B46FB7007F10802012361217868FFF7CE
:1048B00051FFF860FB68002B0FD1FB7803F0030376
:1048C000DAB23B7A62F342033B7207F1080201233A
:1048D00061217868FFF756FFF860FB6818461037CB
:1048E000BD4680BD80B584B000AF78600B46FB70DC
:1048F00007F10802012362217868FFF72BFFF860B7
:10490000FB68002B0FD1FB7803F00103DAB23B7A8E
:1049100062F304133B7207F10802012362217868F5
:10492000FFF730FFF860FB6818461037BD4680BDC2
:1049300080B584B000AF7860396001233A684F21B8
:104940007868FFF707FFF860FB6818461037BD4628
:1049500080BD80B584B000AF78600B46FB7007F176
:104960000802012360217868FFF7F4FEF860FB6815
:10497000002B0FD1FB7803F00103DAB23B7A62F32C
:1049800045133B7207F10802012360217868FFF7A5
:10499000F9FEF860FB6818461037BD4680BD80B54B
:1049A00084B000AF7860396007F10802012360210C
:1049B0007868FFF7CFFEF8603B7AC3F34013DBB2B1
:1049C0001A463B681A70FB6818461037BD4680BD12
:1049D00080B588B004AFF8607A601A460B46FB7267
:1049E00013463B81FB680B4A93420DD1FB7A9AB286
:1049F0004FF47A7302933B8901937B680093012300
:104A0000D521F868FDF72AFD002318461037BD466A
:104A100080BD00BF4005002080B588B004AFF860BD
:104A20007A601A460B46FB7213463B81FB680B4AC1
:104A300093420DD1FB7A9AB24FF47A7302933B8979
:104A400001937B6800930123D521F868FDF700FEF0
:104A5000002318461037BD4680BD00BF400500202A
:104A600080B582B000AF0023FB711F4B00221A708B
:104A70001D491E48FFF753FD1B4B1B786A2B02D0C4
:104A80000123FB712BE001211848FFF759FD18495C
:104A90001648FFF77BFD164B1B78002BF7D1012141
:104AA0001248FFF716FD01211048FFF7A0FC012175
:104AB0000E48FFF7E8FC00210C48FFF772FC0621C6
:104AC0000A48FFF7BAFC01210848FFF778FD1121D9
:104AD0000648FFF79AFDA8210448FFF7CDFDFB79B2
:104AE00018460837BD4680BD080100200800002098
:104AF0000901002080B582B000AF0023FB71134B89
:104B000000221A7011491248FFF7F2F90F4B1B7877
:104B1000B12B02D00123FB7113E001210C48FFF7F8
:104B2000F8F90C490A48FFF71AFA0A4B1B78002BD0
:104B3000F7D100210648FFF78FF902210448FFF75B
:104B4000B1F9FB7918460837BD4680BD0A0100203F
:104B5000140000200B01002080B588B004AFF8607D
:104B60007A601A460B46FB7213463B81FB680B4A80
:104B700093420DD1FB7A9AB24FF47A7302933B8938
:104B800001937B6800930123B921F868FDF766FC67
:104B9000002318461037BD4680BD00BF40050020E9
:104BA00080B588B004AFF8607A601A460B46FB7295
:104BB00013463B81FB680B4A93420DD1FB7A9AB2B4
:104BC0004FF47A7302933B8901937B68009301232E
:104BD000B921F868FDF73CFD002318461037BD46A3
:104BE00080BD00BF4005002080B582B000AF00232B
:104BF000FB711F4B00221A701D491E48FFF744FA33
:104C00001B4B1B78BC2B02D00123FB712BE01A49F4
:104C10001848FFF70EFB19491648FFF76CFA1849B8
:104C20001448FFF728FB17491248FFF782FA164984
:104C30001048FFF742FB15490E48FFF798FA144950
:104C40000C48FFF75CFB13490A48FFF7C1FA012142
:104C50000848FFF7F3F901210648FFF7C9F90121D8
:104C60000448FFF722FAFB7918460837BD4680BD95
:104C70000C01002020000020100100201401002061
:104C8000180100201C010020200100202401002028
:104C9000280100202C01002080B588B004AFF86006
:104CA0007A601A460B46FB7213463B81FB680D4A3D
:104CB000934211D1FB7A63F07F03FB72FB7A9AB2C5
:104CC0004FF47A7302933B8901937B68009301232D
:104CD000BF21F868FDF7C2FB002318461037BD4618
:104CE00080BD00BF4005002080B588B004AFF860EB
:104CF0007A601A460B46FB7213463B81FB680D4AED
:104D0000934211D1FB7A63F07F03FB72FB7A9AB274
:104D10004FF47A7302933B8901937B6800930123DC
:104D2000BF21F868FDF794FC002318461037BD46F4
:104D300080BD00BF4005002080B582B000AF0023D9
:104D4000FB711B4B00221A7019491A48FFF7F0FD3E
:104D5000174B1B78402B02D00123FB7122E0164B2E
:104D600005221A6001211348FFF7F3FD134911488A
:104D7000FFF715FE114B1B78002BF7D101210D48D1
:104D8000FFF7B0FD00210B48FFF73AFD012109486C
:104D9000FFF782FD01210748FFF758FD0021054874
:104DA000FFF708FDFB7918460837BD4680BD00BFF8
:104DB000300100202C0000203800002031010020AC
:104DC00080B588B004AFF8607A601A460B46FB7273
:104DD00013463B81FB680D4A934211D1FB7A63F085
:104DE0007F03FB72FB7A9AB24FF47A7302933B898A
:104DF00001937B68009301233D21F868FDF72EFBAA
:104E0000002318461037BD4680BD00BF4005002076
:104E100080B588B004AFF8607A601A460B46FB7222
:104E200013463B81FB680D4A934211D1FB7A63F034
:104E30007F03FB72FB7A9AB24FF47A7302933B8939
:104E400001937B68009301233D21F868FDF700FC86
:104E5000002318461037BD4680BD00BF4005002026
:104E600080B400AF00BFBD4680BC704780B586B03F
:104E700004AF0346FB714FF0FF330293012301930C
:104E8000FB1D00930123002278210348FDF7E6FA79
:104E900000BF0837BD4680BD4005002080B586B004
:104EA00004AF786039603B689BB24FF0FF320292EA
:104EB00001937B6800930123402278210348FDF78A
:104EC000CDFA00BF0837BD4680BD00BF40050020B9
:104ED00080B500AFFFF7C4FF6420FBF775FB00202F
:104EE00000F0E4F92020FFF7C1FF0020FFF7BEFF2C
:104EF000B020FFF7BBFFC820FFF7B8FF0020FFF787
:104F0000B5FF1020FFF7B2FF4020FFF7AFFFFF20F3
:104F100000F0B8F9A120FFF7A9FFA620FFF7A6FF30
:104F2000A820FFF7A3FF3F20FFF7A0FFA420FFF773
:104F30009DFFD320FFF79AFF0020FFF797FFD520B2
:104F4000FFF794FFF020FFF791FFD920FFF78EFFC6
:104F50002220FFF78BFFDA20FFF788FF1220FFF7F0
:104F600085FFDB20FFF782FF2020FFF77FFF8D20EA
:104F7000FFF77CFF1420FFF779FF012000F096F97E
:104F8000002000F00FF800F02FF8054B00221A80E7
:104F9000034B00225A80024B01225A7100BF80BD90
:104FA0003405002080B485B000AF0346FB710023B8
:104FB000FB600DE0FB79002B01D1002100E0FF2117
:104FC000084AFB6813440A461A70FB680133FB6009
:104FD000FB68B3F5806FEDD300BF00BF1437BD464B
:104FE00080BC70473401002080B582B000AF002340
:104FF000FB7116E0FB79503BDBB21846FFF736FF3A
:105000000020FFF733FF1020FFF730FFFB79DB01B3
:10501000084A134480211846FFF740FFFB7901330B
:10502000FB71FB79072BE5D900BF00BF0837BD46F0
:1050300080BD00BF3401002080B483B000AF0346C0
:10504000FB710B46BB7113467B7197F90730002B40
:1050500048DBBB793F2B45D8254B1B79002B06D06D
:105060007B79002B0CBF01230023DBB27B717B79A2
:10507000012B1AD1FA79BB79DB08D8B20346DB01E0
:1050800013441C4AD35C5AB2BB7903F007030121D5
:1050900001FA03F35BB2134359B2FA790346DB0119
:1050A0001344C9B2134AD1541DE0FA79BB79DB0825
:1050B000D8B20346DB0113440E4AD35C5AB2BB7923
:1050C00003F00703012101FA03F35BB2DB435BB298
:1050D000134059B2FA790346DB011344C9B2054AB9
:1050E000D15400E000BF0C37BD4680BC704700BF04
:1050F000340500203401002090B589B000AF04468B
:10510000381D80E806001A462346FB731346BB731E
:10511000FB7B1F2B02D9FB7B7E2B01D900236CE08C
:10512000384B1B881A463B791344802B06DC354BE1
:105130005B881A467B791344402B01DD00235CE039
:105140000023FB614CE0BA68FB7B203B797901FBD3
:1051500003F31946FB690B445B0013441B887B6116
:105160000023BB6134E07A69BB6902FA03F303F4FC
:105170000043002B12D0234B1B88DAB2BB69DBB291
:105180001344D8B21F4B5B88DAB2FB69DBB213441D
:10519000DBB2BA7B1946FFF74FFF16E0194B1B88AD
:1051A000DAB2BB69DBB21344D8B2164B5B88DAB211
:1051B000FB69DBB21344D9B2BB7B002B0CBF0123CC
:1051C0000023DBB21A46FFF737FFBB690133BB612F
:1051D0003B791A46BB699342C5D3FB690133FB6136
:1051E0007B791A46FB699342ADD3064B1B883A790B
:1051F00013449AB2034B1A80FB7B18462437BD46F2
:1052000090BD00BF3405002080B584B000AFF860C9
:10521000381D80E80600FB7012E0FB681878FB7808
:105220003A1D06CAFFF768FF03461A46FB681B785B
:105230009A4202D0FB681B7808E0FB680133FB60F0
:10524000FB681B78002BE8D1FB681B7818461037E9
:10525000BD4680BD80B483B000AF03460A46FB71F3
:105260001346BB71FB799AB2054B1A80BB799AB28F
:10527000034B5A8000BF0C37BD4680BC704700BF4F
:105280003405002080B584B000AF0346FB71812354
:10529000FB73FB7B1846FFF7E9FDFB791846FFF728
:1052A000E5FD00BF1037BD4680BD000080B584B06D
:1052B00000AF0346FB71FB79002B05D0AF23FB73D6
:1052C000084B01229A7104E0AE23FB73054B0022C8
:1052D0009A71FB7B1846FFF7C9FD00BF1037BD462A
:1052E00080BD00BF3405002080B485B000AF786079
:1052F0000A4B1B68002B02D1084B094A1A60074B66
:105300001B68FB60054B1A687B681344034A1360F3
:10531000FB6818461437BD4680BC70473C0500202A
:105320009008002080B483B000AF78604FF0FF3366
:1053300018460C37BD4680BC704780B483B000AFC0
:10534000786039603B684FF400525A600023184679
:105350000C37BD4680BC704780B483B000AF786026
:10536000012318460C37BD4680BC704780B485B019
:1053700000AFF860B9607A60002318461437BD4664
:1053800080BC704780B400AF074BD3F88830064A22
:1053900043F47003C2F88830034B4FF000629A6008
:1053A00000BFBD4680BC704700ED00E0DFF838D09C
:1053B00072B6002103E00D4B5B58435004310C489A
:1053C0000C4B42189A42F6D30B4A02E0002342F8F3
:1053D000043B0A4B9A42F9D3FFF7D4FF01F07AFB62
:1053E00062B600F0DFFB7047FFFF0120BC880008B9
:1053F00000000020A8000020A80000209008002045
:10540000FEE780B500AF002200214FF0FF30FEF72D
:105410007DF80E220E210A20FEF778F80A20FEF70A
:1054200091F80E220E212820FEF770F82820FEF7B2
:1054300089F800BF80BD000080B58AB000AF7860F9
:1054400000233B61234B1B6B224A43F0020313638F
:10545000204B1B6B03F002033B613B690023FB60A5
:105460001C4B1B6B1B4A43F002031363194B1B6B52
:1054700003F00203FB60FB680023BB60154B1B6C51
:10548000144A43F400131364124B1B6C03F400130F
:10549000BB60BB684FF480737B611223BB61012347
:1054A000FB6103233B6204237B6207F1140319466B
:1054B0000948FBF7ADF84FF400737B6104237B626E
:1054C00007F1140319460448FBF7A2F800BF283778
:1054D000BD4680BD003802400004024080B58AB05D
:1054E00000AF78607B681B68194A93422CD1002377
:1054F0003B61184B5B6C174A43F020035364154B18
:105500005B6C03F020033B613B690023FB60114BA4
:105510001B6B104A43F0010313630E4B1B6B03F02C
:105520000103FB60FB684FF4C0537B610223BB6146
:105530000023FB6100233B6208237B6207F1140315
:1055400019460548FBF764F800BF2837BD4680BD03
:1055500000140140003802400000024080B500AF56
:10556000FFF7C8FA0346002B02D00E4801F0DCF921
:10557000FFF73AFB0346002B02D00B4801F0D4F9A9
:10558000FFF76EFA0346002B02D0084801F0CCF971
:10559000FFF7D2FB0346002B02D0054801F0C4F907
:1055A00000BF80BDE0790008007A00082C7A00086E
:1055B000507A000880B592B000AF1C4801F0B4F9F1
:1055C0000023A7F8463024E0B7F846305B0099B2D4
:1055D000B7F846200A231648FDF760FA034687F815
:1055E000453097F84530002B0BD1B7F84630381DC1
:1055F000104A402101F0AAF93B1D184601F094F928
:1056000002E00D4801F090F9B7F846300133A7F8F1
:105610004630B7F846307F2BD6D9084801F084F9D8
:10562000FFF756FC00BF4837BD4680BD747A0008BE
:1056300040050020887A0008907A0008947A0008D3
:1056400080B500AFFAF782FF00F00EF800F0ACF979
:1056500000F072F800F0ECF800F076F9FFF77EFF4A
:10566000FFF7A8FF00BF80BD80B594B000AF002356
:105670007B602A4B1B6C294A43F080531364274BF1
:105680001B6C03F080537B607B6800233B60244BE2
:105690001B68234A43F440431360214B1B6803F407
:1056A00040433B603B680523BB604FF48033FB60A5
:1056B00001233B6102233B624FF480037B620D2395
:1056C000BB626023FB6202233B6304237B630223F0
:1056D000BB6307F108031846FEF74EF90346002B9B
:1056E00001D000F01FF80F23FB6302233B6400236B
:1056F0007B644FF48053BB640023FB6407F13C03DD
:1057000003211846FDF72CFF0346002B01D000F0C3
:1057100009F800BF5037BD4680BD00BF00380240C9
:105720000070004080B500AF024801F0FDF800BFF6
:10573000FDE700BF9C7A000880B59AB000AF002357
:10574000BB60394B1B6C384A43F001031364364B82
:105750001B6C03F00103BB60BB6800237B60324B12
:105760001B6C314A43F0020313642F4B1B6C03F094
:1057700002037B607B684FF08043BB622D23FB629A
:1057800040F2FF737B630023BB6300233B63002372
:10579000FB6300233B6407F128031846FBF721F95C
:1057A0006023FB6000237B610023FB610023BB615E
:1057B00000237B6200233B6200233B6107F10C0165
:1057C00007F1280304221846FBF786FA07F128039D
:1057D00004211846FBF73AF9144BBB6207F1280382
:1057E0001846FBF7FEF807F10C0107F12803002229
:1057F0001846FBF771FA07F1280300211846FBF75A
:1058000025F907F10C0107F1280304221846FBF7DC
:1058100063FA07F1280304211846FBF717F900BFC4
:105820006837BD4680BD00BF00380240000400401C
:1058300080B588B000AF0023BB603E4B1B6B3D4A78
:1058400043F0010313633B4B1B6B03F00103BB608D
:10585000BB6800237B60374B1B6B364A43F0020367
:105860001363344B1B6B03F002037B607B680023E4
:105870003B60304B1B6B2F4A43F0040313632D4BEB
:105880001B6B03F004033B603B680423FB600123B4
:105890003B610023BB6100237B6107F10C031946C8
:1058A0002548FAF7B5FE4FF40043FB6007F10C03FF
:1058B00019462248FAF7ACFE4FF40053FB6007F19B
:1058C0000C0319461E48FAF7A3FE4FF48263FB60EF
:1058D0001C4B3B610023BB6100237B6107F10C0380
:1058E00019461648FAF794FE1023FB6002233B6129
:1058F0000023BB6100237B610223FB6107F10C03E2
:1059000019460D48FAF784FE8023FB6007F10C036B
:1059100019460B48FAF77CFE0823FB600123FB6164
:1059200007F10C0319460448FAF772FE00BF20374E
:10593000BD4680BD00380240000402400000024025
:10594000000802400000311080B500AF134B144A2C
:105950001A60124B134A5A60104B00229A600F4B88
:1059600040F20F32DA600D4B4FF440421A610B4B9C
:1059700000225A61094BFF229A61084B0022DA612A
:10598000064B00221A620548FCF724FC0346002B54
:1059900001D0FFF7C7FE00BF80BD00BF400500205B
:1059A00000540040801A060080B500AF114B124A27
:1059B0001A60104B4FF4E1325A600E4B00229A608D
:1059C0000C4B0022DA600B4B00221A61094B0022BB
:1059D0009A61084B0C225A61064B0022DA61054895
:1059E000FBF752FD0346002B01D0FFF79BFE00BFE3
:1059F00080BD00BF940500200014014080B400AFBA
:105A000000BFBD4680BC704780B400AF00BFBD463C
:105A100080BC704780B500AF1020FAF773FF00BF5D
:105A200080BD80B500AF4FF48060FAF76BFF00BF18
:105A300080BD80B582B000AF0346FB80FB88102B91
:105A400003D0B3F5806F03D005E0FFF7D7FF02E086
:105A5000FFF7DAFF00BF00BF0837BD4680BD00007A
:105A600080B582B000AF7860391D4FF0FF3301225E
:105A70000348FBF756FD7B6818460837BD4680BDD6
:105A80009405002080B582B000AFF91D4FF0FF33C0
:105A900001220D48FBF7DEFDF91D4FF0FF33012217
:105AA0000948FBF73EFDFB790D2B08D10A23BB719A
:105AB000B91D4FF0FF3301220348FBF732FDFB799C
:105AC00018460837BD4680BD9405002080B586B0D5
:105AD00000AFF860B9607A6000237B610AE0FFF7ED
